:100000000C94AF000C94D7000C94D7000C94D7003C
:100010000C94D7000C94D7000C94D7000C94D70004
:100020000C94D7000C94D7000C94D7000C94F604D1
:100030000C94D7000C94D7000C94D7000C94D700E4
:100040000C94B90F0C94D7000C94AC0E0C94860E43
:100050000C94D7000C94D7000C94D7000C94D700C4
:100060000C94B7050C94D700084AD73B3BCE016EE1
:1000700084BCBFFDC12F3D6C74319ABD56833DDAFF
:100080003D00C77F11BED9E4BB4C3E916BAAAABE0E
:10009000000000803F05A84CCDB2D44EB93836A937
:1000A000020C50B9918688083CA6AAAA2ABE000074
:1000B00000803F004E414E494E495459494E46CD6D
:1000C000CCCC3D0AD7233C17B7D13877CC2B32950F
:1000D00095E6241FB14F0A000020410000C84200ED
:1000E000401C4620BCBE4CCA1B0E5AAEC59D7400B7
:1000F000000000240027002A00010204081020400C
:1001000080010204081020010204081020040404E5
:1001100004040404040202020202020303030303B0
:100120000300000000230026002900000000002535
:100130000028002B0000000008000201000003045A
:100140000700000000000000007C3C3E5E2B3D3FAD
:100150002F5B5D3B2C2A225C000042233E231124AE
:100160001FBECFEFD8E0DEBFCDBF12E0A0E0B1E010
:10017000E2EBF8E502C005900D92A634B107D9F77D
:1001800026E0A6E4B2E001C01D92A434B207E1F774
:1001900010E0CEEAD0E004C02197FE010E94DE29E3
:1001A000CD3AD107C9F70E94E21B0C944C2C0C9459
:1001B0000000DC015996ED91FC915A973097B9F007
:1001C00083899489A589B689428553856485758517
:1001D000841B950BA60BB70B811520E89207A10590
:1001E000B10538F08FEF9FE7A0E0B0E0089580E020
:1001F00090E00895CF93DF931F92CDB7DEB7698368
:10020000DC01ED91FC910280F381E02D41E050E0B2
:10021000BE016F5F7F4F09950F90DF91CF910895D9
:1002200085ED8093BC008091BC0084FDFCCF1092D2
:100230004802089540919102262F30E0240F311D8D
:1002400021323105DCF4209148022430C9F4FC014C
:1002500080E090E0861758F4309191022191DC0102
:10026000A159BD4FA30FB11D2C930196F3CF8091DF
:100270009102680F6093910280E0089581E00895F3
:1002800082E00895089581E090E030914C02209141
:100290004B02321710F480E090E09195819591091E
:1002A000089580914C0290914B02891730F48F5F32
:1002B00080934C0280E090E008958FEF9FEF0895C7
:1002C00080914B0290E020914C02821B910908958D
:1002D000CF92DF92EF92FF920F931F93CF93DF9312
:1002E0007C01262F972F8A018091DD02882391F0CF
:1002F000C62FD72F6E01C40ED51ECC15DD0571F0AB
:100300006991D701ED91FC910190F081E02DC70139
:100310000995F3CF642F822F0E941A01C801DF9143
:10032000CF911F910F91FF90EF90DF90CF900895A4
:10033000CF93DF931F92CDB7DEB769832091DD02A3
:100340002223D1F020914902203240F021E030E018
:10035000FC013383228380E090E015C080914A0243
:10036000E82FF0E0E252FD4F998190838F5F8093F8
:100370004A028093490205C061E0CE0101960E94C5
:100380001A0181E090E00F90DF91CF910895FC0178
:10039000638191E06927638382810E94070F8091C6
:1003A0000001909101018230910538F0880F991F6A
:1003B000880F991F05970197F1F70895FC01818D2A
:1003C000928D009711F00C94E6140895CF93DF936B
:1003D000EC01898D9A8D009739F481E090E09B8340
:1003E0008A8380E090E00BC0FC01138212820E949D
:1003F0002415E98DFA8D22813381232B71F7DF914A
:10040000CF91089561E0FC0184810E94070F8091E3
:10041000B70281111092B70208958EBD00000DB48D
:1004200007FEFDCF8EB508958FEF0C940D020F934C
:100430001F93CF93DF93EB010E94AD0F8B010E94BE
:1004400014028F3F49F00E94AD0F601B710B6C17B7
:100450007D07A8F380E001C081E0DF91CF911F917B
:100460000F910895CF93DF93EC018E81882389F05B
:100470008F8198859C012F5F3F4F38872F83823073
:10048000924018F40E941402F3CFCE010E9402029F
:100490001E82DF91CF9108958CBD9DBD0895CF93AD
:1004A000DF93EC018091B702811109C081E0809354
:1004B000B7028091AC059091AD050E944C0260E0BE
:1004C0008C81DF91CF910C94070FCF92DF92FF9236
:1004D0000F931F93CF93DF9300D000D0CDB7DEB73B
:1004E0006C01F62E29833A834B835C830E9432028F
:1004F000C6010E944F026CE271E0C6010E94170221
:100500008F2D80640E940D0208E110E05C814B8118
:100510003A812981DA01C901002E04C0B695A79558
:10052000979587950A94D2F729833A834B835C8306
:100530000E940D020850110929813A814B815C818A
:10054000083F8FEF180731F7FF2029F0E8E0FE128F
:1005500004C087E803C085E901C08FEF0E940D0247
:1005600010E00E941402F601828787FF04C01F3F3B
:1005700011F01F5FF6CF0F900F900F900F90DF914B
:10058000CF911F910F91FF90DF90CF900895EF9240
:10059000FF920F931F93CF93DF93EC0179014115E5
:1005A00051056105710511F482E13CC08B858330F2
:1005B00039F089E0440F551F661F771F8A95D1F7E0
:1005C0009A01AB0168E1CE010E946502882311F017
:1005D00084E028C08EEF0E940D0287018EEFF81A8A
:1005E000F80181918F010E940D020E151F05C1F7C0
:1005F0008FEF0E940D028FEF0E940D020E941402E5
:100600008A878F71853031F081E18D83CE010E9420
:10061000020209C068E572E0CE010E941702811152
:1006200007C085E18D83CE010E94020280E013C0E5
:1006300020E030E0A9016DE0CE010E946502811149
:1006400004C00E941402882311F084E1EBCFCE0194
:100650000E94020281E0DF91CF911F910F91FF90E4
:10066000EF900895FC01DB0112968D919C911397F8
:100670009383828388E691E09183808314968C91A2
:100680001497848315968C911597858316964D91B2
:100690005D916D917C91199746835783608771872F
:1006A0001A964D915D916D917C911D97428753876C
:1006B000648775871E964D915D916D917C915197E0
:1006C00046875787608B718B52968C915297828B9D
:1006D00053964D915D916D917C915697438B548BC0
:1006E000658B768B57964D915D916D917C915A9764
:1006F000478B508F618F728F5B968D919C915C9729
:10070000948F838F0895EF92FF920F931F93CF934F
:10071000DF93EC017B018A011B821A8288EE93E051
:10072000A0E0B0E08C839D83AE83BF8384E291E040
:10073000998388838DE190E00E94E4299A8F898FC4
:10074000009779F02DE1F701DC0101900D922A95D7
:10075000E1F74CE050E0B801CE010C960E94232C4A
:10076000188EDF91CF911F910F91FF90EF90089518
:100770002F923F924F925F926F927F928F929F92B1
:10078000AF92BF92CF92DF92EF92FF920F931F939F
:10079000CF93DF9300D0CDB7DEB7FC0185818823EE
:1007A00009F4D9C0848180FFD6C021E02A8343891F
:1007B00054896589768982859385A485B58548178E
:1007C00059076A077B0709F41A826F013A81832F60
:1007D00090E0DE0111964D013F01B6E06B0E711CF9
:1007E000892B09F47DC0D6011A964D915D916D91CA
:1007F0007C911D975A01B1E0BB22F60125811A01B7
:100800002B0189E056944794379427948A95D1F721
:10081000838D948D223061F4FC01828D938DA48DA3
:10082000B58DBC01CD01620D731D841D951D45C0A4
:10083000DC0114961C9111501221A114B104D1F4C1
:10084000111118C0452B462B472B51F4F60187890F
:10085000908DA18DB28D86839783A087B1870AC0C2
:10086000468157816085718593010E9460128823BB
:1008700009F471C0F601238D348D86819781A0859E
:10088000B1850297A109B109AC01BD01F901058447
:1008900004C0440F551F661F771F0A94D2F7868540
:1008A0009785A089B189840F951FA61FB71FBC012A
:1008B000CD01610F711D811D911DD60114962C91E2
:1008C00026FF14C000911501109116012091170107
:1008D00030911801601771078207930751F506C020
:1008E000FA81FF23C1F1898190E037C040E00E9486
:1008F0007711882381F1F501E15FFC4FD401CF012D
:100900000196E817F90719F021912D93FACFEFEF2F
:100910008E1A9E0AF60182859385A485B585019677
:10092000A11DB11D82879387A487B58780E090E0E1
:1009300057CF740101E010E09501AB01BC0180913B
:100940000C0390910D030E94E310882321F0BFEF68
:100950008B1A9B0ADFCF8FEF9FEF0F900F90DF91E5
:10096000CF911F910F91FF90EF90DF90CF90BF90AC
:10097000AF909F908F907F906F905F904F903F903F
:100980002F900895FC01818D928D009711F00C94A9
:10099000B8038FEF9FEF08950F931F93CF93DF93CB
:1009A000FC01818D928D0097B9F0EF010E94B80390
:1009B0008C010F3F8FEF180791F0898D9A8DFC0104
:1009C00042855385648575854150510961097109D6
:1009D0000E944D13C80105C080E090E002C08FEF77
:1009E0009FEFDF91CF911F910F9108951F920F926A
:1009F0000FB60F9211242F933F934F935F936F93F2
:100A00007F938F939F93AF93BF93EF93FF938091C7
:100A1000B60287FF05C010928500109284001BC0AB
:100A20002091B602022E000C330B8091270690E035
:100A30002817390784F48091B602082E000C990B10
:100A4000FC01EE0FFF1F8E0F9F1FFC01ED5FF94FA2
:100A5000808186FD15C08091B6028F5F8093B602BB
:100A60002091B602022E000C330B8091270690E0F5
:100A700028173907C4F48091B6028C3064F113C092
:100A80008091B602082E000C990BFC01EE0FFF1F9F
:100A90008E0F9F1FFC01ED5FF94F808160E08F7327
:100AA0000E94070FD8CF8091840090918500049612
:100AB00080349C4918F480E49CE905C0809184004E
:100AC00090918500049690938900809388008FEF21
:100AD0008093B6023BC020918400309185008091C4
:100AE000B602082E000C990BFC01EE0FFF1F8E0FB3
:100AF0009F1FFC01ED5FF94F81819281820F931F4F
:100B000090938900809388008091B602082E000C93
:100B1000990BFC01EE0FFF1F8E0F9F1FFC01ED5F75
:100B2000F94F808186FF12C08091B602082E000C1A
:100B3000990BFC01EE0FFF1F8E0F9F1FFC01ED5F55
:100B4000F94F808161E08F730E94070FFF91EF9151
:100B5000BF91AF919F918F917F916F915F914F91D5
:100B60003F912F910F900FBE0F901F9018951F92DD
:100B70000F920FB60F9211242F933F934F935F93D1
:100B80006F937F938F939F93AF93BF93EF93FF9355
:100B90008091B900887F803609F49CC068F588325E
:100BA00009F45BC090F4803109F454C038F4882310
:100BB00009F4F6C0883009F44DC0F6C0883109F454
:100BC0004CC0803209F45DC0EFC0803409F468C0C5
:100BD00048F4803309F455C0883309F0E5C08093A8
:100BE000DC02D8C0803509F44FC0883509F45DC0F7
:100BF000883409F0D9C0D6C0883909F4C7C0A8F430
:100C0000883709F467C038F4883609F463C0803740
:100C100009F460C0C9C0883809F4B8C0803909F443
:100C20005FC0803809F0C0C05BC0803B09F486C05B
:100C300038F4803A09F466C0883A09F47FC0B4C039
:100C4000803C09F4A7C0883C09F4A4C0883B09F49F
:100C50008AC0AAC08091B90210C09091DB02809135
:100C6000DA02981770F5E091DB0281E08E0F809335
:100C7000DB02F0E0E654FD4F80818093BB0085EC01
:100C800086C08093DC028EC0E091DB0281E08E0F93
:100C90008093DB028091BB00F0E0E654FD4F80833F
:100CA0009091DB028091DA026EC0E091DB0281E07C
:100CB0008E0F8093DB028091BB00F0E0E654FD4F85
:100CC00080838091470281116DC081E0809346024C
:100CD00084EA61C083E0809348021092B502CFCFCE
:100CE0008091B502803208F051C0E091B50281E0F8
:100CF0008E0F8093B5028091BB00F0E0EB56FD4F64
:100D00008083BDCF85EC8093BC0010924802809117
:100D1000B502803230F4E091B502F0E0EB56FD4FC1
:100D200010826091B50270E0E0919302F09194021C
:100D300085E992E009951092B50236C084E080936F
:100D400048021092920210929102E0918F02F0916B
:100D50009002099580919102811105C081E08093F4
:100D6000910210926F02E091920281E08E0F8093C7
:100D70009202F0E0E159FD4F80818093BB00909199
:100D8000920280919102981708F479CF85E88093B8
:100D9000BC000AC085EC8093BC001092480204C0DD
:100DA0001092DC020E941001FF91EF91BF91AF9170
:100DB0009F918F917F916F915F914F913F912F9173
:100DC0000F900FBE0F901F9018950F931F93CF9306
:100DD000DF93EC016C8181E0682789810E94070F15
:100DE000288130E0F901EB5CFE4F8491F901E75076
:100DF000FF4F0491F901E35FFE4F1491112391F02D
:100E000081110E94DE0EE12FF0E0EE0FFF1FEF5D7B
:100E1000FE4FA591B491EC91E02321F0CE010E9408
:100E2000C701DECFDF91CF911F910F910895CF932E
:100E3000DF93EC0160E088810E94370F61E08981D7
:100E40000E94370F61E08A810E94370F61E088813C
:100E50000E94070F6C8189810E94070F6B818A8134
:100E6000DF91CF910C94070FCF92DF92FF920F93F7
:100E70001F93CF93DF93CDB7DEB728970FB6F894C3
:100E8000DEBF0FBECDBF8C0188E0EAE4F1E0DE01F9
:100E9000119601900D928A95E1F790913006492FB5
:100EA00050E09B0133272417350714F06FEF690FCB
:100EB000FE013196E60FF11DE60FF11D60816068BD
:100EC00040E088E296E00E948110F12C8F2D90E0A6
:100ED000F80101900020E9F73197E01BF10B8E1724
:100EE0009F0750F4F801E80FF91F608188E296E04F
:100EF0000E94DB1BF394EACFF12C80E1C82ED12CA9
:100F0000F80101900020E9F73197E01BF10B8F2DDC
:100F100090E096012E1B3F0B8217930738F460E296
:100F200088E296E00E94DB1BF394EACF28960FB686
:100F3000F894DEBF0FBECDBFDF91CF911F910F910F
:100F4000FF90DF90CF9008954F925F926F927F92C3
:100F50008F929F92AF92BF92CF92DF92EF92FF92C9
:100F6000CF93DF93CDB7DEB7E0970FB6F894DEBF2F
:100F70000FBECDBF2B013C0149015A0164387044BA
:100F80008140910548F438EB831630EC930631E04C
:100F9000A306B10408F4AAC07E0143E1E40EF11CEB
:100FA00064E272E0C7010E94C61B67E272E0CE01F4
:100FB0000D960E94C61B64E272E0CE0107960E9465
:100FC000C61B2AE0B301A201CE0101960E94991B23
:100FD000BE01695F7F4FCE0101960E94D81AB5010C
:100FE000A4010E94A11ABE01635F7F4F0E94D81A1C
:100FF00047EB50EC61E070E00E94A11AB7010E943B
:10100000D81A43E850E461E070E00E94A11A0E94FF
:10101000EA17CE0101960E94691BCE0107960E9435
:10102000691BCE010D960E94691BC7010E94691BB6
:101030002AE0B501A401CE010D960E94991B2AE079
:10104000B301A201CE0107960E94991B66E272E0ED
:10105000CE0101960E94C61BBE01695F7F4FCE0183
:1010600001960E94D81A6C0143E050E069E272E0F8
:101070000E94611A882309F432C1BE01635F7F4F69
:10108000C6010E94D81A1C8A1B8A1E8A1D8A188EC5
:101090001F8A8E159F0571F0DC016D917C9111976F
:1010A0006115710539F014964D915C911597C70142
:1010B0000E94EB1A61E070E08B899C890E943407E2
:1010C000C7010E94691BCE0101960E94691BCE01D7
:1010D00007960E94691BCE010D960E94691B60E075
:1010E00070E08DE292E00E943407FDC080916502BD
:1010F00090916602A0916702B0916802A3019201EB
:10110000281B390B4A0B5B0B298F3A8F4B8F5C8F57
:1011100080915D0290915E02A0915F02B0916002A9
:1011200075016401C81AD90AEA0AFB0A60910E0126
:101130001C141D041E041F0414F081E06827809114
:101140000B010E94070F60911301298D3A8D4B8D81
:101150005C8D121613061406150614F081E068273C
:10116000809110010E94070F898D9A8DAB8DBC8DE7
:10117000B7FF0BC0B095A095909581959F4FAF4F4D
:10118000BF4F898F9A8FAB8FBC8FCD8EDE8EEF8E47
:10119000F8A2F7FE0DC0A701960150954095309535
:1011A00021953F4F4F4F5F4F2D8F3E8F4F8F58A34D
:1011B0001DA21EA21FA218A619A21AA21BA21CA23F
:1011C000C12CD12C760189A19AA1ABA1BCA1298DFA
:1011D0003A8D4B8D5C8D82179307A407B50709F4F0
:1011E0005AC08FE091E00E94C7016DA17EA18FA13E
:1011F00098A5298D3A8D4B8D5C8D0E94EC26DA01E5
:10120000C9018C199D09AE09BF0989A79AA7ABA787
:10121000BCA7AC01BD0114161506160617068CF402
:101220008AE091E04DA75EA76FA778AB0E94C70147
:101230004DA55EA56FA578A94150510961097109B5
:10124000EACF89A59AA5ABA5BCA5B7FF03C080E0EE
:1012500090E0DC01C80ED91EEA1EFB1E29A13AA1AE
:101260004BA15CA12F5F3F4F4F4F5F4F29A33AA384
:101270004BA35CA38DA19EA1AFA1B8A52D8D3E8DE2
:101280004F8D58A1820F931FA41FB51F8DA39EA33E
:10129000AFA3B8A798CF8D8D9E8DAF8DB8A1C8167E
:1012A000D906EA06FB0654F48AE091E00E94C701E1
:1012B0003FEFC31AD30AE30AF30AEDCF4092650267
:1012C00050926602609267027092680280925D029C
:1012D00090925E02A0925F02B092600204C0C601CA
:1012E0000E948F1ACACEE0960FB6F894DEBF0FBEEA
:1012F000CDBFDF91CF91FF90EF90DF90CF90BF9067
:10130000AF909F908F907F906F905F904F900895D7
:10131000CF92DF92EF92FF924091590250915A0280
:1013200060915B0270915C0280915D0290915E021F
:10133000A0915F02B09160029A01AB01280F391FA2
:101340004A1F5B1FC0906102D0906202E09063026E
:10135000F09064028091650290916602A09167020C
:10136000B0916802BC01CD016C0D7D1D8E1D9F1DCD
:10137000FF90EF90DF90CF900C94A407209159023A
:1013800030915A0240915B0250915C02609161027F
:101390007091620280916302909164020C94A407A0
:1013A0004F925F926F927F928F929F92AF92BF9275
:1013B000CF92DF92EF92FF920F931F93CF93DF9321
:1013C000CDB7DEB7A4970FB6F894DEBF0FBECDBF82
:1013D00069877A878B879C87298F3A8F4B8F5C8FA1
:1013E000E9A2FAA20BA31CA3AD82BE82CF82D8864B
:1013F0002FA938AD49AD5AAD2D873E874F87588B01
:101400008091650290916602A0916702B091680296
:10141000898B9A8BAB8BBC8B20915D0230915E02E5
:1014200040915F02509160022D8B3E8B4F8B588F05
:10143000AB28AC28AD2831F16D857E858F859889E4
:101440000E94CA256B017C016D817E818F81988508
:101450000E94CA259B01AC01C701B6010E94272842
:101460000E94F32721EE3EE245E652E40E942B263D
:1014700020E030E0A9010E94872769837A838B836B
:101480009C8308C080E090E0A7E8B3E489839A8356
:10149000AB83BC838D809E80AF80B88429893A89D4
:1014A0004B895C89820E931EA41EB51E89859A8580
:1014B000AB85BC8588169906AA06BB06D1F18D8935
:1014C0009E89AF89B88D298D3A8D4B8D5C8D821B9D
:1014D000930BA40BB50B2D853E854F855889280F9E
:1014E000391F4A1F5B1FCA01B9010E94CA256B013F
:1014F0007C01C501B40129853A854B855C85621B59
:10150000730B840B950B0E94CA259B01AC01C7018C
:10151000B6010E9427280E94F32721EE3EE245E60D
:1015200052E40E942B2620E030E0A9010E94872788
:1015300004C060E070E087E893E420911401222366
:1015400039F09B01AC0169817A818B819C8104C057
:1015500029813A814B815C810E9486270E949928CB
:101560004B015C01161617061806190624F4C12C47
:10157000D12C760106C088E6C82EDD24D394E12C58
:10158000F12CC80CD91CEA1CFB1CF7FE0EC06DE246
:101590008FE095E00E94DB1B66277727CB016C1953
:1015A0007D098E099F094AE003C04AE0C701B601E0
:1015B0000E94FF178BE092E00E94D81718141904BC
:1015C0001A041B042CF088E691E0A0E0B0E003C010
:1015D00080E090E0DC01BC01CD01680D791D8A1D21
:1015E0009B1D0E94CC256D8F7E8F8F8F98A3C12C61
:1015F000D12C76012D8D3E8D4F8D58A1C701B6019E
:101600000E94C52518160CF441C1A7019601C70117
:10161000B6010E949429882319F08AE392E01AC047
:1016200046015701E894B7F82FEF3FEF4FE75FE728
:10163000C501B4010E94942981110FC02FEF3FEF23
:101640004FE75FE7C501B4010E94C52518162CF4C9
:101650008EE392E00E94D81776C02FEF3FEF4FE75E
:101660005FE4C701B6010E94352918161CF482E414
:1016700092E0F0CF2FEF3FEF4FE75FECC701B601ED
:101680000E94C52587FDF3CF20E030E0A901C70106
:10169000B6010E94C52587FF09C06DE28FE095E085
:1016A0000E94DB1BC701B601905802C0C701B601FA
:1016B0002AE037ED43EA5BE30E9487272B013C01D8
:1016C0000E94A0284B015C010E94CA259B01AC012D
:1016D000C301B2010E9486272B013C014AE0C501EB
:1016E000B4010E94FF176EE28FE095E00E94DB1BC1
:1016F00020E030E040E251E4C301B2010E942B2619
:101700004B015C010E94A0282B01612C712C4AE046
:10171000C301B2010E94FF17C301B2010E94CA2592
:101720009B01AC01C501B4010E94862720E030E096
:1017300040E251E40E942B260E94A02880E090E025
:101740004AE00E94FF178BE092E00E94D8171091A8
:101750001401111105C060E070E080E89FE304C04F
:1017600060E070E080E89FEBA70196010E942B26C5
:1017700029813A814B815C810E94872725E33AEFDA
:101780004EE85CE30E942B260E9422282B013C019C
:1017900069A17AA18BA19CA10E94CA254B015C0181
:1017A0009B01AC01C301B2010E942B262B013C011D
:1017B0006D817E818F8198850E94CA259B01AC0135
:1017C000C301B2010E9487272B013C0169897A89F4
:1017D0008B899C890E94CC259B01AC01C301B2017D
:1017E0000E9487270E9499282B013C01111105C0F6
:1017F00060E070E080E89FE304C060E070E080E8B3
:101800009FEBA70196010E942B2629813A814B81EB
:101810005C810E94872725E33AEF4EE85CE30E9453
:101820002B260E944229A50194010E942B264B01E0
:101830005C016D857E858F8598890E94CA259B01F4
:10184000AC01C501B4010E9487274B015C016D8981
:101850007E898F89988D0E94CC259B01AC01C501A2
:10186000B4010E9487270E9499289B01AC01C30103
:10187000B2010E94A40720E030E040E450E4C70138
:10188000B6010E9487276B017C01B4CE298D3A8D69
:101890004B8D5C8D69857A858B859C85A4960FB66A
:1018A000F894DEBF0FBECDBFDF91CF911F910F9196
:1018B000FF90EF90DF90CF90BF90AF909F908F9070
:1018C0007F906F905F904F900C94A4074F925F921F
:1018D0006F927F92AF92BF92CF92DF92EF92FF9280
:1018E0000F931F93CF93DF93CDB7DEB728970FB633
:1018F000F894DEBF0FBECDBF409055025090560207
:101900006090570270905802A0904D02B0904E0225
:10191000C0904F02D09050024114510461047104F0
:1019200009F063C0A114B104C104D10409F4DDC0FD
:1019300040905102509052026090530270905402B5
:10194000411451046104710409F4CFC0809165020F
:1019500090916602A0916702B0916802BC01CD012E
:101960006A197B098C099D0900915D0210915E0244
:1019700020915F023091600278018901E418F50836
:10198000060917099B01AC010E94C22969837A8369
:101990008B839C83A8019701C801B7010E94C229CB
:1019A00029813A814B815C81620F731F841F951FCF
:1019B0000E94CC250E9450290E94A0287B018C0106
:1019C0002091590230915A0240915B0250915C0281
:1019D0006091610270916202809163029091640251
:1019E0007F926F925F924F927AC08091590290914C
:1019F0005A02A0915B02B0915C028D839E83AF83FB
:101A0000B887209161023091620240916302509147
:101A1000640229833A834B835C83A114B104C1041B
:101A2000D10469F08091510290915202A091530229
:101A3000B09154020097A105B10509F042C0A3017D
:101A40009201C301B2010E94C2297B018C01A6014F
:101A50009501C601B5010E94C229A8019701261B64
:101A6000370B480B590BCA01B9010E94CC250E94C3
:101A70005029009165021091660220916702309111
:101A80006802C980DA80EB80FC80C01AD10AE20AC1
:101A9000F30A97018601F7FE07C03095209510954F
:101AA00001951F4F2F4F3F4F58016901D594C7949F
:101AB000B794A7940E94A0289F938F937F936F93CE
:101AC00004C0BF93AF939F938F93830172012D81C5
:101AD0003E814F81588569817A818B819C810E94EA
:101AE000D0090F900F900F900F9028960FB6F89492
:101AF000DEBF0FBECDBFDF91CF911F910F91FF9041
:101B0000EF90DF90CF90BF90AF907F906F905F90FD
:101B10004F900895109214010C94660C81E080930C
:101B200014010C94660CFC01918D828D981761F064
:101B3000828DDF01A80FB11D5D968C91928D9F5F04
:101B40009F73928F90E008958FEF9FEF0895FC01AF
:101B5000918D828D981731F0828DE80FF11D858D62
:101B600090E008958FEF9FEF0895FC01918D228DF5
:101B7000892F90E0805C9F4F821B91098F7399277A
:101B800008958FE095E00E94B50D21E0892B09F4BE
:101B900020E0822F0895FC01848DDF01A80FB11D84
:101BA000A35ABF4F2C91848D90E001968F73992793
:101BB000848FA689B7892C93A089B1898C91806480
:101BC0008C93938D848D981306C00288F389E02D41
:101BD00080818F7D80830895EF92FF920F931F93F2
:101BE000CF93DF93EC0181E0888F9B8D8C8D9813D0
:101BF00005C0E889F989808185FD24C0F62E0B8D0A
:101C000010E00F5F1F4F0F731127E02E8C8DE8122D
:101C10000CC00FB607FCFACFE889F989808185FFEF
:101C2000F5CFCE010E94CB0DF1CF8B8DFE01E80FD9
:101C3000F11DE35AFF4FF0820B8FEA89FB89808107
:101C4000806207C0EE89FF896083E889F989808115
:101C50008064808381E090E0DF91CF911F910F91AC
:101C6000FF90EF900895CF93DF93EC01888D882348
:101C7000C9F0EA89FB89808185FD05C0A889B989F9
:101C80008C9186FD0FC00FB607FCF5CF808185FFD4
:101C9000F2CFA889B9898C9185FFEDCFCE010E9442
:101CA000CB0DE7CFDF91CF91089580E090E0892BB5
:101CB00029F00E94C10D81110C94000008953FB7D6
:101CC000F8948091080390910903A0910A03B091C0
:101CD0000B0326B5A89B05C02F3F19F00196A11D47
:101CE000B11D3FBFBA2FA92F982F8827820F911DB2
:101CF000A11DB11DBC01CD0142E0660F771F881FF9
:101D0000991F4A95D1F708950E94DB2B1F920F92DD
:101D10000FB60F9211242F933F934F935F936F93BE
:101D20007F938F939F93AF93BF93EF93FF938FE036
:101D300095E00E94CB0DFF91EF91BF91AF919F91E4
:101D40008F917F916F915F914F913F912F910F9064
:101D50000FBE0F901F9018951F920F920FB60F9203
:101D600011242F938F939F93EF93FF93E0911F057F
:101D7000F09120058081E0912505F091260582FDF6
:101D800012C09081809128058F5F8F732091290563
:101D9000821751F0E0912805F0E0E15FFA4F958F4E
:101DA0008093280501C08081FF91EF919F918F91D1
:101DB0002F910F900FBE0F901F901895833081F0D8
:101DC00028F4813099F08230A1F008958730A9F08D
:101DD0008830B9F08430D1F4809180008F7D03C0C9
:101DE000809180008F7780938000089584B58F77ED
:101DF00002C084B58F7D84BD08958091B0008F7737
:101E000003C08091B0008F7D8093B00008951F9330
:101E1000CF93DF93282F30E0F901EB5CFE4F8491E4
:101E2000F901E750FF4FD491F901E35FFE4FC491F0
:101E3000CC23C9F0162F81110E94DE0EEC2FF0E0AA
:101E4000EE0FFF1FE55DFE4FA591B4918FB7F8949B
:101E5000111105C09C91ED2FE095E92302C0EC9192
:101E6000ED2BEC938FBFDF91CF911F910895CF930E
:101E7000DF9390E0FC01E750FF4F2491FC01E35F0A
:101E8000FE4F8491882361F190E0880F991FFC0137
:101E9000E151FF4FC591D491FC01E55DFE4FA59145
:101EA000B491611109C09FB7F8948881209582236D
:101EB0008883EC912E230BC0623061F49FB7F894B5
:101EC0003881822F809583238883EC912E2B2C934D
:101ED0009FBF06C08FB7F894E8812E2B28838FBF51
:101EE000DF91CF9108958F929F92AF92BF92CF9240
:101EF000DF92EF92FF926B017C010E945F0E4B011B
:101F00005C01C114D104E104F104F1F00E945F0E00
:101F1000DC01CB0188199909AA09BB09883E9340C5
:101F2000A105B10570F321E0C21AD108E108F1085A
:101F300088EE880E83E0981EA11CB11CC114D10448
:101F4000E104F10419F7DDCFFF90EF90DF90CF901F
:101F5000BF90AF909F908F9008952FB7F8946091A5
:101F600004037091050380910603909107032FBF2E
:101F700008951F920F920FB60F9211242F933F9343
:101F80008F939F93AF93BF93809104039091050328
:101F9000A0910603B09107033091030323E0230FC0
:101FA0002D3720F40196A11DB11D05C026E8230F91
:101FB0000296A11DB11D2093030380930403909307
:101FC0000503A0930603B093070380910803909143
:101FD0000903A0910A03B0910B030196A11DB11D45
:101FE0008093080390930903A0930A03B0930B0313
:101FF000BF91AF919F918F913F912F910F900FBE05
:102000000F901F901895CF93FC01C48121E020937D
:10201000DD02C093020310924A02109249028385A6
:10202000682B87EF95E00E949801809149028132E8
:1020300008F046C0909148029111FCCF92E0909335
:10204000480291E0909347029FEF9093DC02109238
:10205000DB028093DA02AEEDB2E02AEB32E0F90166
:102060009E2F921B981718F49D919193F9CF10927F
:10207000B9028091B902CC0FC82BC093B9028091EC
:102080004602813061F4109246028091B902809339
:10209000BB008091BC0083FDF8CF85EC01C085EECC
:1020A0008093BC00809148028230E1F38091DC0291
:1020B0008F3F31F08091DC02803211F08091DC02A0
:1020C00010924A02109249021092DD02CF910895B7
:1020D0000F931F93CF938C01C62F0E9403106C2F78
:1020E0006460C8010E9403106C2F6B7FC8010E94BE
:1020F000031083EC90E00197F1F7CF911F910F91BE
:102100000895FF920F931F93CF93DF931F92CDB744
:10211000DEB78C01F62E962F907F692F642BC801B5
:1021200049830E94681080E1F89EB0011124498122
:10213000642BC8010F90DF91CF911F910F91FF90F9
:102140000C94681041E00E94811081E090E00895B5
:1021500080910E038823A9F1409115015091160139
:1021600060911701709118012FE033E080910C030A
:1021700090910D030E94C702811102C080E0089572
:102180004091FE025091FF026091000370910103A3
:10219000411551056105710591F02FE033E0809103
:1021A0000C0390910D030E94C702882339F310920B
:1021B000FE021092FF02109200031092010310928F
:1021C0000E0381E00895AF92BF92CF92DF92EF921B
:1021D000FF920F931F93CF93DF93EC016901C80126
:1021E000820F931F8130924008F070C08E81882347
:1021F00071F088819981AA81BB81481759076A07C4
:102200007B0729F48F819885C816D906B0F54883D5
:1022100059836A837B838B85833039F089E0440F4F
:10222000551F661F771F8A95D1F79A01AB0161E1AF
:10223000CE010E946502882319F083E08D8346C099
:102240000E94AD0F5B010E9414028A878F3F49F400
:102250000E94AD0F6A197B096D327140A0F38FE0C7
:1022600003C08E3F31F08DE08D83CE010E940202CB
:102270002DC018861F8281E08E838F8198858C15F2
:102280009D0540F40E9414028F81988501969887DD
:102290008F83F3CF6701E00EF11ECE14DF0431F01F
:1022A0000E941402F60181936F01F7CF8F81988508
:1022B000080F191F18870F838985882319F00115C6
:1022C000124048F0CE010E94320205C0CE010E94A9
:1022D000020280E001C081E0DF91CF911F910F9158
:1022E000FF90EF90DF90CF90BF90AF9008958F92C6
:1022F0009F92AF92BF92EF92FF920F931F93CF9353
:102300004B015C01C42F8091150190911601A091A1
:102310001701B091180188159905AA05BB0501F1AF
:102320000E94A810811102C080E020C08FE0E82E3A
:1023300083E0F82E00E012E020E030E0B501A401D7
:1023400080910C0390910D030E94E310882361F3A8
:102350008092150190921601A0921701B092180177
:1023600080910E03C82BC0930E0381E0CF911F9183
:102370000F91FF90EF90BF90AF909F908F90089536
:102380004F925F926F927F928F929F92AF92BF9285
:10239000CF92DF92EF92FF920F931F93CF93DF9331
:1023A000EC016A017B0128013901423051056105C8
:1023B000710510F480E073C089859A85AB85BC8572
:1023C0000196A11DB11D84179507A607B70790F3C5
:1023D0008B889C88AD88BE888F89803129F4BB2783
:1023E000AF2D9E2D8D2D09C0DB01CA0147E0B695AA
:1023F000A795979587954A95D1F7880E991EAA1E9D
:10240000BB1E8091150190911601A0911701B0910A
:10241000180188169906AA06BB0679F48F898031BF
:10242000A1F4DD24EE24FF24C601880F991FFC01CE
:10243000E15FFC4F5182408219C040E0C501B40108
:102440000E9477118111EACFB5CFE894C7F8DD2457
:10245000EE24FF24C601880F991F880F991FFC01E5
:10246000E15FFC4F408251826282738280910E0351
:10247000816080930E038A89823080F08D819E81F5
:10248000AF81B885880E991EAA1EBB1E8092FE02DF
:102490009092FF02A0920003B092010381E0DF91CD
:1024A000CF911F910F91FF90EF90DF90CF90BF9051
:1024B000AF909F908F907F906F905F904F90089516
:1024C0008F929F92AF92BF92CF92DF92EF92FF9244
:1024D0000F931F93CF93DF93FC0181859285A38592
:1024E000B4850196A11DB11D84179507A607B707EE
:1024F00010F480E05CC083899489A589B689C78976
:10250000C03129F4852E962EA72EBB2409C04A017E
:102510005B01C7E0B694A79497948794CA95D1F7C6
:10252000E9016A017B018F01BC01CD01680D791DB4
:102530008A1D9B1D8090150190901601A090170197
:10254000B0901801681579058A059B0599F4F80182
:1025500087898031A9F4B701A60155276627772717
:10256000440F551FFA01E15FFC4F80819181A0E08B
:10257000B0E018C040E00E9477118111E8CFB9CFD8
:10258000B701A6014F77552766277727440F551FB8
:10259000440F551FFA01E15FFC4F80819181A281B8
:1025A000B381BF7088839983AA83BB8381E0DF9165
:1025B000CF911F910F91FF90EF90DF90CF90BF9040
:1025C000AF909F908F9008954F925F926F927F92FD
:1025D000AF92BF92CF92DF92EF92FF920F931F9331
:1025E000CF93DF9300D000D0CDB7DEB78C01498305
:1025F0005A836B837C835901C12CD12C7601412CE9
:1026000082E0582E612C712C49815A816B817C812A
:102610009E012F5F3F4FC8010E946012882351F135
:10262000D301C201F801058404C0880F991FAA1FB5
:10263000BB1F0A94D2F7C80ED91EEA1EFB1E4981A1
:102640005A816B817C818789803129F088EF9FEFE7
:10265000AFEFBFE004C088EF9FEFA0E0B0E0481705
:1026600059076A077B0780F2F501C082D182E282B6
:10267000F38281E00F900F900F900F90DF91CF9138
:102680001F910F91FF90EF90DF90CF90BF90AF9090
:102690007F906F905F904F9008958F929F92AF922E
:1026A000BF92CF92DF92EF92FF920F931F93CF933F
:1026B000DF93EC018D81811102C080E077C00B892E
:1026C0001C892D893E890417150726073707A8F3AB
:1026D0006A017B01823029F4CA86DB86EC86FD869E
:1026E0000DC0C114D104E104F10451F41E821F8213
:1026F000188619861A861B861C861D8681E056C0A0
:102700008A849B84AC84BD84EB8DFC8D258530E070
:10271000275F3F4FB501A40141505109610971097B
:10272000022E04C076956795579547950A94D2F77F
:10273000D701C6010197A109B10904C0B695A795B3
:10274000979587952A95D2F784179507A607B70717
:1027500020F089288A288B2849F44F89588D698D63
:102760007A8D4E835F836887798704C0841B950BBD
:10277000A60BB70B4C015D018E010A5F1F4F811440
:102780009104A104B10409F4A7CF4E815F8168854B
:10279000798598018B8D9C8D0E94601291E0891A39
:1027A0009108A108B1088111EACF87CFDF91CF91BD
:1027B0001F910F91FF90EF90DF90CF90BF90AF905F
:1027C0009F908F9008953F924F925F926F927F9269
:1027D0008F929F92AF92BF92CF92DF92EF92FF9231
:1027E0000F931F93CF93DF93CDB7DEB72C970FB620
:1027F000F894DEBF0FBECDBF5C01DC015B968D900F
:102800009C905C971696CD90DD90ED90FC9019977A
:10281000C114D104E104F10439F0BFEFCB1ADB0A93
:10282000EB0AFB0A312C07C0F401C080D180E280A2
:10283000F38033243394F40181859285A385B48594
:102840009C01AD012F5F3F4F4F4F5F4F29873A8764
:102850004B875C87260137011D821E821F821886E6
:10286000F40181859285A385B4852D813E814F81B8
:102870005885281739074A075B0708F063C0898520
:102880009A85AB85BC858C159D05AE05BF0550F4BA
:1028900082E0C82ED12CE12CF12C92E0492E512C53
:1028A000612C712C9E012F5F3F4FB701A601C4011F
:1028B0000E946012882309F445C089819A81AB8106
:1028C000BC81892B8A2B8B2B41F0260137019FEF8E
:1028D000491A590A690A790A05C0C414D504E604DC
:1028E000F70491F02D813E814F8158852F5F3F4F36
:1028F0004F4F5F4F2D833E834F8358873FEFC31A5F
:10290000D30AE30AF30AACCF0FEF1FEF2FEF3FE03C
:10291000B301A201C4010E94C011882399F0D5011E
:1029200016964D915D916D917C91199741155105C8
:102930006105710549F093018201C4010E94C01133
:10294000811102C080E02AC0D50116964D925D9299
:102950006D927C921997332051F0D301C2010196F8
:10296000A11DB11DF40180839183A283B383F5017E
:102970008789908DA18DB28D892B8A2B8B2B69F441
:10298000D50157964D925D926D927C925A9714960E
:102990008C911497806814968C9381E02C960FB6D6
:1029A000F894DEBF0FBECDBFDF91CF911F910F9185
:1029B000FF90EF90DF90CF90BF90AF909F908F905F
:1029C0007F906F905F904F903F900895CF93DF93EB
:1029D000EC018D818823A1F18C8187FF2DC06E854C
:1029E0007F858889998941E00E947711882341F188
:1029F000EA8980E2E89FF0011124DF01A15FBC4F6A
:102A00001097F1F08D81823050F44B895C896D898B
:102A10007E895C964D935D936D937C935F978F89D0
:102A2000988DA98DBA8DE15FFC4F938F828FB58B06
:102A3000A48B8C818F778C83DF91CF910C94A8101D
:102A400080E0DF91CF9108952F923F924F925F9255
:102A50006F927F928F929F92AF92BF92CF92DF92AE
:102A6000EF92FF920F931F93CF93DF9300D000D08C
:102A7000CDB7DEB78C015B011A01DC0115968C9194
:102A800015978130C9F414968C9181FF15C082FF8F
:102A90001BC0F801438954896589768982859385AD
:102AA000A485B58584179507A607B70769F0C801FF
:102AB0000E944D13811108C081E090E0F8019383DA
:102AC000828380E090E039C1610183C0D8015B96C8
:102AD0008D919C915C97FC01248121502A013B013E
:102AE00039E076946794579447943A95D1F7722ECB
:102AF00074207A01F1E0FF22772009F476C080E0AB
:102B000092E08E199F0946018C159D0508F44C0131
:102B1000D8015B962D913C915C9716968D919D9175
:102B20000D90BC91A02D0297A109B109F90105846E
:102B300004C0880F991FAA1FBB1F0A94D2F74685AD
:102B4000578560897189840F951FA61FB71F9C0147
:102B5000AD01270D311D411D511D29013A0181147F
:102B600032E0930609F088C080911501909116011A
:102B7000A0911701B091180184159505A605B70518
:102B800059F48FEF9FEFDC018093150190931601AC
:102B9000A0931701B09318019501B301A201809190
:102BA0000C0390910D030E94C702882309F484CF7F
:102BB0009EEFB91AC818D908F80182859385A485B3
:102BC000B585880D991DA11DB11D82879387A487A6
:102BD000B587D8011A964D915D916D917C911D97A5
:102BE000C114D10409F072CF87C0E114F10409F0D7
:102BF00086CF16964D915D916D917C9119974115F7
:102C000051056105710559F457968D919D910D906F
:102C1000BC91A02D0097A105B10541F521C09E01F1
:102C20002F5F3F4F0E946012882309F44BCF8981A8
:102C30009A81AB81BC81F801238D348DF9012789FC
:102C4000203129F048EF5FEF6FEF7FE004C048EFDD
:102C50005FEF60E070E084179507A607B70730F0D4
:102C6000C8010E94E31381114ACF26CFF801868361
:102C70009783A087B18743CFE114F10429F5D801E8
:102C80001A964D915D916D917C911D9753968D9102
:102C90009D910D90BC91A02D481759076A077B079D
:102CA00098F00E94A810882309F406CF40921501DD
:102CB00050921601609217017092180180910E03D4
:102CC000816080930E0308C041E0C301B2010E94FD
:102CD0007711882309F4F0CED501F701E15FFC4FAD
:102CE000CF01880D991DE817F90719F02D9121934F
:102CF000FACFA80CB91C5ECF53968D919D910D9083
:102D0000BC91A02D84179507A607B70740F4F801DA
:102D1000438B548B658B768B848180688483D80148
:102D200014968C9183FD02C0C10107C0C8010E94A6
:102D3000E614882309F4C0CEF7CF0F900F900F90C0
:102D40000F90DF91CF911F910F91FF90EF90DF9047
:102D5000CF90BF90AF909F908F907F906F905F903B
:102D60004F903F902F900895CF93DF931F92CDB750
:102D7000DEB7698341E050E0BE016F5F7F4F0E9484
:102D800024150F90DF91CF910895CF93DF93EC013D
:102D90000E94E614882311F01D8281E0DF91CF911B
:102DA00008958FB7F8948091B8028FBF0895CF939C
:102DB000DF93EC016A8B8091150190911601A0912F
:102DC0001701B09118018E879F87A88BB98B80E27D
:102DD000689FF0011124E15FFC4F4489558960E050
:102DE00070E0BA01552744274F8B588F698F7A8F2F
:102DF000828D938DA0E0B0E0482B592B6A2B7B2B62
:102E00004F8B588F698F7A8F8385887151F4848DA9
:102E1000958DA68DB78D8B8B9C8BAD8BBE8B81E0FA
:102E20000EC0803111F080E015C09E012D5E3F4F35
:102E30008B8D9C8D0E94E4128823A9F384E08D83FE
:102E400081E08C831E821F82188619861A861B8653
:102E50001C861D86DF91CF9108950F931F93CF930A
:102E6000DF93EC0188819981009729F02A813B81C9
:102E70002617370788F48B016F5F7F4F0E94112B55
:102E8000009761F0998388831B830A832C813D819D
:102E9000232B11F4FC01108281E001C080E0DF915E
:102EA000CF911F910F910895CF92DF92EF92FF92F1
:102EB000DC01A03282E0B8070CF03EC0B7FD06C0CE
:102EC000A53BB1052CF0A4EBB0E002C0A0E0B0E05F
:102ED0008091360628E830E06901C81AD10887FDDC
:102EE000D394CC0CDD1CCC0CDD1C0D2C000CEE089E
:102EF000FF088091370628E532E0281B310987FD5D
:102F00003395220F331F220F331FA901330F660B96
:102F1000770B9A01AB012C193D094E095F090E94FC
:102F2000162724EB30E040E050E00E94EC26C20E71
:102F3000D31EE41EF51ED601909135069C3098F5FF
:102F40008091360648E850E0481B510987FD5395AB
:102F5000440F551F440F551FA417B5078CF08091DF
:102F6000370628E532E0281B310987FD3395220F0B
:102F7000331F220F331FAD012A173B070CF4A901A1
:102F800042505109440F551F2FB7F894892F90E0F4
:102F9000FC01EE0FFF1F8E0F9F1FFC01ED5FF94F2D
:102FA000528341832FBFFF90EF90DF90CF90089521
:102FB000009769F0FC0101900020E9F73197AF011B
:102FC000481B590BBC018FE095E00C946E1B80E010
:102FD00090E00895CF93DF93FC0144815581608197
:102FE00071818FE095E00E946E1BEC018BE092E016
:102FF0000E94D8178C0F9D1FDF91CF9108958F925B
:103000009F92AF92BF920F931F93CF93DF93CDB751
:10301000DEB7A1970FB6F894DEBF0FBECDBF19A2E1
:10302000423008F44AE08E010F5D1F4F842E912C30
:10303000A12CB12CA50194010E945527E62FB901BE
:10304000CA0101501109EA3014F4E05D01C0E95CE5
:10305000D801EC93232B242B252B61F7C8010E9468
:10306000D817A1960FB6F894DEBF0FBECDBFDF9183
:10307000CF911F910F91BF90AF909F908F90089527
:1030800040E061E088E296E00E9481108BE39FE1DE
:103090000197F1F70895AF92BF92CF92DF92EF922E
:1030A000FF920F931F93CF93DF93CDB7DEB72B978C
:1030B0000FB6F894DEBF0FBECDBF7C01CE010196E6
:1030C0006C01FC0190E28BE08C0D91938E13FDCF8F
:1030D000DA0120E037E09D91992339F19E3219F011
:1030E000E9E4F1E00AC03A3009F4AAC028E03AE085
:1030F000F2CF3196891709F4A3C084918111F9CFD9
:10310000321708F49DC08FED890F8E3508F098C0F6
:1031100081E0820FF601E20FF11D2FE9290F2A311C
:1031200008F490529083282FD6CF8981803209F4F9
:1031300087C08B01FB01838D948DF701948F838F62
:10314000FB0116821782108611861286138614865A
:103150001586A12CF80182859385A485B5854389C0
:1031600054896589768984179507A607B70708F0FB
:1031700067C025E0B695A795979587952A95D1F7CD
:10318000F82FFF70BF2EF8018581823008F458C0F7
:10319000C8010E94B80397FD53C0F801828593854A
:1031A000A485B5854F96A11DB11D82879387A487FD
:1031B000B587F0E2BF9EC0011124BC01615F7C4F66
:1031C00061157105E9F1FB0120812223B9F1253E4A
:1031D000E1F04BE050E0C6010E94E02B892B09F0A2
:1031E000B9CF6B2DC7012B960FB6F894DEBF0FBE7B
:1031F000CDBFDF91CF911F910F91FF90EF90DF90A6
:10320000CF90BF90AF900C94D716A11014C0F701C7
:10321000B28A409115015091160160911701709189
:10322000180146875787608B718BFC01E15FFC4F6B
:103230008081882329F0AA24A3948CCFAA2039F373
:1032400080E02B960FB6F894DEBF0FBECDBFDF91A6
:10325000CF911F910F91FF90EF90DF90CF90BF9093
:10326000AF9008958F929F92AF92BF92CF92DF92CC
:10327000EF92FF92CF93DF93C82F8EEA95E0909361
:103280000D0380930C03CC2369F1C53010F080E06E
:103290000DC140E060E070E0CB010E94771188230F
:1032A000B1F320E1C29FC001112481509D4FFC0168
:1032B000E254FE4F20812F7751F73C964081518197
:1032C00062817381443651056105710500F33497BD
:1032D000C080D180E280F380C114D104E104F10404
:1032E00021F4D5CFC12CD12C760140E0C701B60125
:1032F0000E947711882359F280911A0390911B0341
:103300008115924021F6A0911F03AA2309F4BFCF93
:1033100060911D0370911E036115710509F4B7CF0B
:1033200020911C03222309F4B2CFA093CC05209353
:10333000BE0580E030E0E1E0F0E0C82FAF01082EEC
:1033400002C0440F551F0A94E2F72417350741F0D5
:10335000982F8F5F983089F789E08093C70597CFC2
:103360008093C7052091250330912603211531054F
:1033700019F040E050E008C020913303309134034D
:1033800040913503509136032093BF053093C0051B
:103390004093C1055093C20546015701860E971E02
:1033A000A11CB11C8092CD059092CE05A092CF05B4
:1033B000B092D005E0912003F0912103F093D30562
:1033C000E093D205B0E00E940B27860E971EA81E40
:1033D000B91E8092D4059092D505A092D605B092E0
:1033E000D70585E0EE0FFF1F8A95E1F7E150FE4F0C
:1033F000EF2FFF27E6958E0E9F1EA11CB11C809219
:10340000C8059092C905A092CA05B092CB0520913B
:103410002203309123032115310521F0A90160E039
:1034200070E008C040912F03509130036091310348
:1034300070913203D701C60188199909AA09BB09FD
:10344000840F951FA61FB71F04C0B695A795979523
:103450008795CA95D2F78093C3059093C405A0932E
:10346000C505B093C605853F2FE09207A105B105BC
:1034700010F48CE018C0853F9F4FA105B10510F4F2
:1034800080E111C080913B0390913C03A0913D03EA
:10349000B0913E038093D4059093D505A093D605B3
:1034A000B093D70580E28093D10581E0DF91CF9181
:1034B000FF90EF90DF90CF90BF90AF909F908F9054
:1034C0000895EF92FF920F931F93CF93DF93FC0128
:1034D000248135816115710511F480E019C0411511
:1034E0005105A9F07B01EC018A01020F131FB801FD
:1034F0000E942D17882389F3288139818C819D8131
:10350000B701820F931F0E941C2C1D830C8381E046
:10351000DF91CF911F910F91FF90EF900895CF937E
:10352000DF93EC0188819981009711F00E94792A3C
:10353000198218821D821C821B821A82DF91CF9110
:103540000895EF92FF920F931F93CF93DF93CDB720
:10355000DEB72D970FB6F894DEBF0FBECDBF7C014E
:10356000CB01BA012AE08E010F5F1F4FA8010E9414
:103570001524F80101900020E9F73197AF01401BB5
:10358000510BB801C7010E94611A811103C0C70124
:103590000E948F1AC7012D960FB6F894DEBF0FBE9A
:1035A000CDBFDF91CF911F910F91FF90EF900895C4
:1035B000CF93DF93EC01FB014481558160817181E0
:1035C0000E94611A811103C0CE010E948F1ACE01A0
:1035D000DF91CF910895EF92FF920F931F93CF93B6
:1035E000DF93EC017B018A01BA010E942D17811142
:1035F00004C0CE010E948F1A07C01D830C83B7013F
:10360000888199810E941C2CCE01DF91CF911F915E
:103610000F91FF90EF900895CF93DF93EC01611528
:10362000710559F0FB0101900020E9F73197AF01D6
:10363000461B570B0E94EB1A02C00E948F1ACE0144
:10364000DF91CF910895BF92CF92DF92EF92FF92D8
:103650000F931F93CF93DF937C016B018A01E901E4
:103660002417350720F4812F8901C42FD82F6DE04E
:1036700072E0C7010E94C61BD60114968D919C91E1
:10368000159708171907D0F48C179D0708F4EC015B
:10369000D601ED91FC911197EC0FFD1FB0801082C7
:1036A0004D915C91BA01600F711FC7010E940C1B04
:1036B000D601ED91FC91EC0FFD1FB082C701DF91A7
:1036C000CF911F910F91FF90EF90DF90CF90BF901F
:1036D0000895FC01808191810C94792ACF92DF9228
:1036E000EF92FF920F931F93CF93DF936C017A01B8
:1036F0008B01C0E0D0E0CE15DF0589F0D8016D91D7
:103700008D01D601ED91FC910190F081E02DC60173
:103710000995892B11F47E0102C02196ECCFC701D7
:10372000DF91CF911F910F91FF90EF90DF90CF909D
:1037300008950F931F93CF93DF93CDB7DEB7A19773
:103740000FB6F894DEBF0FBECDBF8C01CB01BA011E
:10375000F80111821082138212821582148230E0E5
:10376000AE014F5F5F4F0E940A24BE016F5F7F4F23
:10377000C8010E940C1BA1960FB6F894DEBF0FBEC5
:10378000CDBFDF91CF911F910F910895FC01118260
:10379000108213821282158214826115710551F014
:1037A000FB0101900020E9F73197AF01461B570B51
:1037B0000C94EB1A0895DC01ED91FC910190F081DD
:1037C000E02D0994CF93DF93CDB7DEB7C359D1096C
:1037D0000FB6F894DEBF0FBECDBF789484B582607B
:1037E00084BD84B5816084BD85B5826085BD85B5A5
:1037F000816085BD80916E00816080936E00109223
:10380000810080918100826080938100809181009D
:10381000816080938100809180008160809380002E
:103820008091B10084608093B1008091B00081608C
:103830008093B00080917A00846080937A008091B8
:103840007A00826080937A0080917A008160809310
:103850007A0080917A00806880937A001092C1008B
:10386000E0911F05F091200582E08083E0911B0527
:10387000F0911C051082E0911D05F0911E058FEC62
:10388000808310922705E0912305F091240586E0BE
:103890008083E0912105F091220580818061808301
:1038A000E0912105F0912205808188608083E0917C
:1038B0002105F0912205808180688083E0912105B7
:1038C000F091220580818F7D808310924C021092AE
:1038D0004B0210924A02109249021092480281E073
:1038E000809347021092460261E082E10E94070F36
:1038F00061E083E10E94070F8091B9008E7F809381
:10390000B9008091B9008D7F8093B90088E48093DD
:10391000B80085E48093BC0010922D068091320699
:10392000823018F098E090932D068093300662E381
:1039300070E080E090E00E94730F6091330688E2AF
:1039400096E00E94031068EE73E080E090E00E9431
:10395000730F60E388E296E00E9468100BE416E4BF
:10396000C8010197F1F760E388E296E00E946810D1
:10397000C8010197F1F760E388E296E00E946810C1
:1039800083E592E00197F1F760E288E296E00E9419
:10399000681060912D06606240E088E296E00E9427
:1039A000811084E080932E0640E06CE088E296E08F
:1039B0000E9481100E94401882E080932F0640E010
:1039C00066E088E296E00E94811040E062E088E2D2
:1039D00096E00E9481108BE39FE10197F1F788E068
:1039E0008093330660E088E296E00E94031061E075
:1039F00082E00E94370F61E083E00E94370F60E0B1
:103A000082E00E94070F60E083E00E94070F10929F
:103A1000B9051092B7051092B4051092B3058AE06B
:103A20008093B2050E94AD0F8B0161E08091B205D9
:103A30000E94370F61E08091B2050E94070FFFB628
:103A4000F89480916902811127C0E7E1F1E0849147
:103A5000E3E0F1E09491E82FF0E0EE0FFF1FE15179
:103A6000FF4FA591B491EC91E92321F461E08AE044
:103A70000E94070F61E08AE00E94370F8CB58061D9
:103A80008CBD8CB580648CBD61E08DE00E94370FE9
:103A900061E08BE00E94370F809169028F5F809315
:103AA0006902FFBE82E58093AC051092AD0580915E
:103AB000AC059091AD050E944C022AE0F22E8FEFEA
:103AC0000E940D02FA94F110FACF8EEA95E00E945E
:103AD0004F0220E030E0A90160E08EEA95E00E940C
:103AE0006502F82E8093B80581E0F81649F00E942F
:103AF000AD0F601B710B613D774058F381E056C0FC
:103B00002AEA31E040E050E068E08EEA95E00E9469
:103B1000650282FF03C0F092B90510C094E0F92E4F
:103B20000E9414028093B805FA94F110F9CF8A3AF2
:103B300011F082E03BC082E08093B9058091B90525
:103B4000823021F0C12CD12C760105C0C12CD12CA2
:103B5000E12C80E4F82E20E030E0A90167E38EEA52
:103B600095E00E946502A701960169E28EEA95E060
:103B70000E9465028093B805882349F00E94AD0F2A
:103B8000601B710B613D774030F388E00FC080917E
:103B9000B905823001F520E030E0A9016AE38EEA40
:103BA00095E00E946502882341F086E08093B3058A
:103BB0008EEA95E00E940202A9C00E941402807C55
:103BC000803C19F483E08093B9050E9414020E949E
:103BD00014020E9414028EEA95E00E94020280E51F
:103BE0008093AC051092AD0581E00E9432198823C4
:103BF00029F08091DD05882341F088C080E00E9493
:103C00003219882309F482C0F4CF8091D105803124
:103C100009F582E08093DD051092EF051092F00522
:103C20001092F1051092F2058091D2059091D30582
:103C3000A0E0B0E015E0880F991FAA1FBB1F1A95DE
:103C4000D1F78093EB059093EC05A093ED05B0932D
:103C5000EE051EC0803209F059C083E08093DD0577
:103C60004091D4055091D5056091D6057091D70546
:103C70004093EF055093F0056093F1057093F205C2
:103C80002BEE35E08AEB95E00E94E4128823F1F1F7
:103C90008AEB95E09093F4058093F30581E080939F
:103CA000DC051092DE051092DF051092E0051092FF
:103CB000E1051092E2051092E3051092E4051092DE
:103CC000E5051092E6051092E7051092E8051092BE
:103CD000E9051092EA0568ED75E0CE0101960E94B3
:103CE0003203BE016F5F7F4FCE01805C9F4F0E9409
:103CF00032031EA21DA288E691E09CA38BA318A606
:103D000026968FAD2697811106C012C060E070E044
:103D10008CE991E055C082504DEA51E0823020F5A7
:103D200068ED75E0CE0183960E944B1881112AC080
:103D3000A1961FAE1EAEA19788EE93E0A0E0B0E082
:103D4000A5968CAF9DAFAEAFBFAFA59784E291E0D3
:103D50006F969FAF8EAF6F97E8961FAE1EAEE89737
:103D6000AA961FAEAA971FC0BE01605C7F4FCE010E
:103D700083960E944B188823D9F2CE01805C9F4F16
:103D80000E94C516BE016D5D7F4FCE0101960E9457
:103D900032034DEA51E0BE016F5F7F4FCE01835A7F
:103DA0009F4F0E948303E896EEADFFADE89760E079
:103DB00070E0309719F08581811105C087EB91E0A3
:103DC0000E943407A3C187EC91E00E94340764EF9E
:103DD00071E080E090E00E94730F0E94401860E064
:103DE00070E088ED91E00E94340761E070E085EEBC
:103DF00091E00E943407CE01835A9F4F0E94D90060
:103E0000892B89F0CE01835A9F4F0E94C204898377
:103E10001A8241E050E0BE016F5F7F4F88E396E079
:103E20000E94611AE8CF10913406809135068C30DB
:103E300008F052C061E0812F0E94370F8091350653
:103E4000E82FF0E09F01220F331FE20FF31FED5F19
:103E5000F94F1F739081907C192B108310923606B6
:103E6000109237066CE00E94D229ECE08E9FB001E0
:103E7000112440E050E09A01260F371FF901EE0FA0
:103E8000FF1F2E0F3F1FF901ED5FF94F908196FD47
:103E900016C04F5F5F4F4C30510569F781110FC05D
:103EA0001092800082E08093810010928500109231
:103EB0008400B19A80916F00826080936F00E091DE
:103EC0003506F0E0CF01880F991FE80FF91FED5F6D
:103ED000F94F8081806480838EE690E00E945417C1
:103EE00068EE73E080E090E00E94730F8AE590E056
:103EF0000E94541768EE73E080E090E00E94730F18
:103F00008FE091E00E9417078AE091E00E94170776
:103F10008EE690E090930101809300018FE091E0A4
:103F20000E94E5068AE091E00E94E5061092650293
:103F300010926602109267021092680210925D025F
:103F400010925E0210925F021092600210926B0259
:103F500010926C0210926D0210926E020E94401834
:103F600060E070E080EF91E00E943407E12CF12CDA
:103F700040E050E020913C0630913D062E153F0573
:103F800008F4C4C0E216F30660F4809138069091FC
:103F90003906009731F0FC01EE0DFF1D80818A305B
:103FA00021F0E216F30609F0ADC0970168E376E070
:103FB000CE0186579F4F0E94231B6DE072E0CE0119
:103FC00001960E94C61B6CE072E0CE0183960E94AF
:103FD000C61BC257DF4F88809980CE58D0408114CD
:103FE000910431F04FA058A44114510409F097C036
:103FF000CE0183960E94691BCE0101960E94691B27
:10400000CC57DF4F19821882C458D040CA57DF4FAF
:1040100019821882C658D040C857DF4F19821882BB
:10402000C858D040C657DF4F68817981CA58D04000
:104030006115710559F0C257DF4F48815981CE583B
:10404000D040CE018C579F4F0E94EB1AC857DF4FCC
:10405000C880D980C858D040C114D10409F47AC1AD
:10406000CC57DF4F08811981C458D04060E270E01E
:10407000C8010E94082C009709F46CC1801B910BA9
:10408000082F8F3F09F40C2DCE018C579F4F0E94B3
:10409000EA17002E000C110B980140E050E0BE0121
:1040A0006C577F4FCE0101960E94231B89809A8016
:1040B00032E0A32E31E0B32EC12CD12CB401F50196
:1040C000819191915F010E94132C892B09F045C1C8
:1040D000CE0101960E94691B8FEFC81249C10E9450
:1040E000401860E070E08CEF91E00E943407CE0150
:1040F0008C579F4F0E94691BCE0186579F4F0E948D
:10410000691BA7018FEFE81AF80A34CF60E070E06E
:104110008EE092E00E9434070E94550EFDCFCD80C4
:10412000DE80C418D508C657DF4F08811981CA58E8
:10413000D040C114D104A9F46BA17CA1C8010E9494
:10414000322C8C01892B09F453CF69817A814D81FE
:104150005E81C8010E94ED2B8D819E81080F191F81
:10416000EBCFD7FE02C0580105C06BA07CA0540164
:10417000C80135C06BA17CA1C5010E94322C4C0145
:10418000892B41F134016A187B08A301B501C801EC
:104190000E94ED2B060D171D69817A814D815E818C
:1041A000C8010E94ED2B8D819E81080F191FAFA0C1
:1041B000B8A4A80CB91CC257DF4F88819981CE588A
:1041C000D0408C0D9D1DC257DF4F99838883CE58F8
:1041D000D040D0CFB501C8010E941C2C09CFB3013B
:1041E0000E94322C009729F0840D951DAC0CBD1C4B
:1041F000F6CFA814B90409F4FBCEC457DF4F888169
:104200009981CC58D0408A159B05A8F4B5016F5F01
:104210007F4FC8010E94112B009709F4E9CEC657C1
:10422000DF4F99838883CA58D040C457DF4FB98283
:10423000A882CC58D040C257DF4F08811981CE5890
:10424000D0400150110917FDD3CE4FA058A44114FE
:10425000510409F4CDCEC257DF4FA880B980CE58A3
:10426000D040A114B10409F4C3CEA414B50408F4D9
:10427000BFCE0A151B0518F0850101501109C6575C
:10428000DF4F88809980CA58D0402BA03CA0C40141
:1042900066246A94762CA401400F511F48175907D1
:1042A000C8F0B101CE56DF4F4883C259D040CD5639
:1042B000DF4F5883C359D0400E94322CCE56DF4F77
:1042C0004881C259D040CD56DF4F5881C359D040A4
:1042D0000097B9F577FC8CCE460C571CC401840DB1
:1042E000951DA50144195509BC018C0D9D1D0E9409
:1042F000F62BC257DF4F88819981CE58D0408C0D64
:104300009D1DC257DF4F99838883CE58D040C65732
:10431000DF4F28813981CA58D040F901E80FF91FD1
:104320001082C657DF4F88819981CA58D040698171
:104330007A814D815E81860D971D0E94ED2B830150
:1043400080CF9C01281939090217130708F0390199
:104350000196A4CF8FEF9FEF93CEFFEFCF1ADF0A26
:1043600044E0C416D10409F0A9CECC24CA94B0CE3E
:10437000CC0CDD08F601EE5FFE4F808191810E943A
:10438000D8178BE092E00E94D817C857DF4F2881DA
:104390003981C858D0400217130709F41FC1A8017A
:1043A000BE016C577F4FCE0182589F4F0E94231B46
:1043B0008091650290916602A0916702B0916802B7
:1043C0008093610290936202A0936302B0936402AF
:1043D00080915D0290915E02A0915F02B0916002B7
:1043E0008093590290935A02A0935B02B0935C02AF
:1043F00010925502109256021092570210925802D3
:1044000010925102109252021092530210925402D2
:1044100010924D0210924E0210924F0210925002D2
:1044200001E010E040E050E0CE57DF4F28813981B5
:10443000C258D0402017310708F4CBC00217130729
:1044400078F4C258DF4F88819981CE57D0400097C9
:1044500039F0FC01E00FF11F8081803209F4E7C0E0
:104460000217130709F0B2C0E2C04FEFA41AB40A52
:1044700040812115310519F0009709F0F0C0109224
:104480006A02AAE6B2E033965C914513EECF41E0B2
:1044900050E0BE0168587F4FCE01805C9F4F0E9464
:1044A000231B22968EAD9FAD2297009709F4D9C0A9
:1044B0000E94F7231CA21BA21EA21DA218A61FA2C7
:1044C00022E43AE144EA53E40E942B260E94992810
:1044D0002AE0AE014F5F5F4F0E94FB23BE016F5F7A
:1044E0007F4FCE0183960E940C1BEE968EAD9FAD42
:1044F000EE97892B09F4B9C0EA96EEADFFADEA97C5
:10450000309709F4B2C080811A8219821C821B8202
:104510001E821D82C057DF4F8883C059D040CF56BE
:10452000DF4F1882C159D040BE0160577F4FCE0186
:1045300001960E940C1BBE016D5D7F4FCE0101965E
:104540000E94D81A0E94EA17CE0101960E94691BA8
:10455000CE0183960E94691BCE01805C9F4F0E9412
:10456000691BC501880F991FFC01EA0DFB1DE05D69
:10457000FE4FA180B280EE962EAD3FADEE9741E0AA
:1045800050E0BE0168587F4FCE0101960E94231B68
:1045900089819A81009709F46DC00E94F72322E473
:1045A0003AE144EA53E40E942B260E949928F5013F
:1045B0006083718382839383CE0101960E94691B7D
:1045C000CE0188589F4F0E94691BA8010F5F1F4FA3
:1045D0002BCFCE0182589F4F0E94691B80916B02A6
:1045E00090916C02A0916D02B0916E02892B8A2B82
:1045F0008B2B59F080E797E19093010180930001A4
:1046000061E082E00E94070F0AC060E082E00E9441
:10461000070F8EE690E09093010180930001F60170
:10462000EE5BFE4F0190F081E02D099560CD4F5F6C
:104630005F4F9801BE0162587F4FCE0188589F4F4F
:104640000E94231BEE962EAD3FADEE97EA968EADFF
:104650009FADEA97E0E3F1E0A12CB12C09CFDC019A
:1046600012CF60E070E0CB0125CF10926A02EAE63B
:10467000F2E049CF60E070E0CB0191CF88E396E0B3
:104680000C94691B109212051092110588EE93E0AC
:10469000A0E0B0E08093130590931405A093150556
:1046A000B093160528E531E03093100520930F05EF
:1046B00025EC30E030931C0520931B0524EC30E002
:1046C00030931E0520931D0520EC30E0309320052B
:1046D00020931F0521EC30E0309322052093210523
:1046E00022EC30E0309324052093230526EC30E0C3
:1046F0003093260520932505109228051092290550
:1047000010922A0510922B0520E52093AC051092FB
:10471000AD051092B3051092B4051092B705109232
:10472000B90542E050E060E070E04093BA05509374
:10473000BB056093BC057093BD051092D105109226
:10474000DB051092DA0528E631E03093D905209395
:10475000D8051092DD051092FA051092F9058093A4
:10476000FB059093FC05A093FD05B093FE0580E743
:1047700091E09093F8058093F7056DE072E088E38F
:1047800096E00E94C61B89E080933406809127063C
:104790008C30A0F491E0980F909327068093350613
:1047A00090E0FC01EE0FFF1F8E0F9F1FFC01ED5FDD
:1047B000F94F88EB9BE09283818303C08FEF809356
:1047C000350610922B0610922A0680E991E090930C
:1047D00029068093280687E280932C0680E1809347
:1047E000310682E0809332061092330608956627E0
:1047F00077270C943724BB272A3051F4992342F4AD
:10480000BDE290958095709561957F4F8F4F9F4F3A
:104810000C9416242532310520F4223010F00C942B
:104820001524FA011082CA010895BB27FA01A62FA8
:104830006217710581059105330B30FB66F0AA27DD
:10484000660F771F881F991FAA1FA21710F0A21BBF
:1048500063953850A9F7A05DAA3308F0A95DA1932C
:1048600036F7B111B1931082CA010C94B525A0E0BE
:10487000B0E0EDE3F4E20C942227EC017B0161153A
:10488000710519F0DB018D939C938E010F5F1F4F13
:104890007880872D90E00E949425892B11F0E80103
:1048A000F4CFBDE27B1205C00F5F1F4F7980C1E0DE
:1048B00008C0EBE27E1204C08E010E5F1F4F7980AC
:1048C000C0E06801F1E0CF1AD10843E050E06CEBA2
:1048D00070E0C6010E949D25892BF1F4680122E059
:1048E000C20ED11C45E050E067EB70E0C6010E94AB
:1048F0009D25892B21F4680187E0C80ED11CE114A5
:10490000F10419F0D701CD92DC92C111FFC060E033
:1049100070E080E89FE703C143E050E064EB70E0A3
:10492000C6010E949D25892B51F4E114F10409F47C
:10493000F2C00E5F1F4FF70111830083ECC06801C6
:1049400060E070E0CB0100E010E0F601D0EDD70DA3
:10495000DA3058F52C2F2260622E2C2F2870C2FFDF
:1049600005C0211128C00F5F1F4F25C0222311F061
:1049700001501109A5E0B0E09B01AC010E940B279A
:104980004B015C01880C991CAA1CBB1CC501B4011D
:104990006D0F711D811D911D6839A9E97A078A077C
:1049A000A9E19A0740F0C66005C0DE3F51F4C3FD9F
:1049B00044C0C8606C2EBFEFCB1ADB0A7080C62DD6
:1049C000C4CF2D2F2F7D2531C1F540814D3211F4FB
:1049D000C06106C04B3221F0319621E030E006C0C4
:1049E0003296D60111964C9122E030E0A0EDA40F52
:1049F000AA3018F0E21BF30B20C040E050E0403832
:104A0000BCE05B075CF49A01220F331F220F331FB7
:104A1000420F531F440F551F4A0F511D3196DF019E
:104A200011972C91A0EDA20FAA3048F3C4FF03C048
:104A3000519541955109040F151FC1FF07C0E1149D
:104A4000F10421F03197D701ED93FC930E94CA2520
:104A5000C370C33019F06B017C0106C06B017C018F
:104A6000F7FAF094F7F8F09420E030E0A901C701DC
:104A7000B6010E94C525882309F445C017FF06C06A
:104A8000119501951109C3EDD0E002C0CBEED0E045
:104A90005E01B8E1AB1AB1084601BE2DAF2D90E220
:104AA000E92EF12C0E151F0584F0FE01259135919C
:104AB00045915491B4018B2F9A2F0E942B264B01C4
:104AC000B82FA92F0E191F09EDCF2497F594E7945D
:104AD000CA15DB0539F76401EB2EFA2E8E2D880FEF
:104AE0008F2D881F8F3F49F020E030E0A901C701DA
:104AF000B6010E94C525811106C082E290E0909324
:104B00003F0680933E06C701B60109C060E070E031
:104B100080E89FEF04C060E070E080EC9FE7CDB7D5
:104B2000DEB7EEE00C943E2791110C94982680326B
:104B300019F089508550C8F70895FB01DC014150F8
:104B4000504088F08D9181341CF08B350CF4805EE0
:104B5000659161341CF06B350CF4605E861B61114D
:104B600071F3990B0895881BFCCFDC01FC01672FC2
:104B700071917723E1F7329704C07C916D93708334
:104B80006291AE17BF07C8F308950E94072608F484
:104B900081E00895E89409C097FB3EF490958095D4
:104BA000709561957F4F8F4F9F4F9923A9F0F92FF3
:104BB00096E9BB279395F695879577956795B79571
:104BC000F111F8CFFAF4BB0F11F460FF1BC06F5F57
:104BD0007F4F8F4F9F4F16C0882311F096E911C069
:104BE000772321F09EE8872F762F05C0662371F08A
:104BF00096E8862F70E060E02AF09A95660F771F9E
:104C0000881FDAF7880F9695879597F90895990F79
:104C10000008550FAA0BE0E8FEEF16161706E80786
:104C2000F907C0F012161306E407F50798F0621BA7
:104C3000730B840B950B39F40A2661F0232B242B7C
:104C4000252B21F408950A2609F4A140A6958FEF9B
:104C5000811D811D08950E943E260C94B2260E945B
:104C6000A42638F00E94AB2620F0952311F00C9476
:104C70009B260C94A12611240C94E6260E94C326A0
:104C800070F3959FC1F3950F50E0551F629FF0019F
:104C9000729FBB27F00DB11D639FAA27F00DB11DB8
:104CA000AA1F649F6627B00DA11D661F829F222741
:104CB000B00DA11D621F739FB00DA11D621F839FC8
:104CC000A00D611D221F749F3327A00D611D231F9E
:104CD000849F600D211D822F762F6A2F11249F57EC
:104CE00050409AF0F1F088234AF0EE0FFF1FBB1FEF
:104CF000661F771F881F91505040A9F79E3F5105AE
:104D000080F00C949B260C94E6265F3FE4F3983EDB
:104D1000D4F3869577956795B795F795E7959F5F57
:104D2000C1F7FE2B880F911D9695879597F90895E9
:104D300099278827089597F99F6780E870E060E0D9
:104D400008959FEF80EC089500240A941616170624
:104D500018060906089500240A941216130614066C
:104D600005060895092E0394000C11F4882352F0CF
:104D7000BB0F40F4BF2B11F460FF04C06F5F7F4F87
:104D80008F4F9F4F089557FD9058440F551F59F06E
:104D90005F3F71F04795880F97FB991F61F09F3F28
:104DA00079F087950895121613061406551FF2CF51
:104DB0004695F1DF08C0161617061806991FF1CFA1
:104DC00086957105610508940895E894BB276627C8
:104DD0007727CB0197F90895052E97FB1EF40094D1
:104DE0000E94032757FD07D00E94552707FC03D0D8
:104DF0004EF40C94032750954095309521953F4FE4
:104E00004F4F5F4F089590958095709561957F4FB6
:104E10008F4F9F4F08950E947727A59F900DB49FB5
:104E2000900DA49F800D911D11240895B7FF0C943F
:104E30000B270E940B27821B930B08952F923F9202
:104E40004F925F926F927F928F929F92AF92BF929A
:104E5000CF92DF92EF92FF920F931F93CF93DF9346
:104E6000CDB7DEB7CA1BDB0B0FB6F894DEBF0FBEA3
:104E7000CDBF09942A88398848885F846E847D84F0
:104E80008C849B84AA84B984C884DF80EE80FD80F2
:104E90000C811B81AA81B981CE0FD11D0FB6F89468
:104EA000DEBF0FBECDBFED010895A1E21A2EAA1BF1
:104EB000BB1BFD010DC0AA1FBB1FEE1FFF1FA217CA
:104EC000B307E407F50720F0A21BB30BE40BF50BC7
:104ED000661F771F881F991F1A9469F76095709550
:104EE000809590959B01AC01BD01CF010895A29FD3
:104EF000B001B39FC001A39F700D811D1124911DAE
:104F0000B29F700D811D1124911D08955058BB272B
:104F1000AA270E949E270C94B2260E94A42638F04D
:104F20000E94AB2620F039F49F3F19F426F40C942C
:104F3000A1260EF4E095E7FB0C949B26E92F0E9436
:104F4000C32658F3BA17620773078407950720F042
:104F500079F4A6F50C94E5260EF4E0950B2EBA2F05
:104F6000A02D0B01B90190010C01CA01A00111246F
:104F7000FF27591B99F0593F50F4503E68F11A161B
:104F8000F040A22F232F342F4427585FF3CF4695AC
:104F900037952795A795F0405395C9F77EF41F16CE
:104FA000BA0B620B730B840BBAF09150A1F0FF0F98
:104FB000BB1F661F771F881FC2F70EC0BA0F621F84
:104FC000731F841F48F4879577956795B795F79574
:104FD0009E3F08F0B0CF9395880F08F09927EE0F09
:104FE000979587950895DF93DD27B92FBF7740E820
:104FF0005FE31616170648075B0718F4D92F0E94BF
:105000003A299F938F937F936F930E949029E8E6AC
:10501000F0E00E94CF280E94B2262F913F914F913D
:105020005F910E943E26DD2351F09058A2EA2AEDBE
:105030003FE049EC5FE3D0785D270E949E27DF9137
:105040000C94B2260E94F828E3950C9421290E9422
:105050003B280C94B2260E94AB2658F00E94A4264E
:1050600040F029F45F3F29F00C949B2651110C94D9
:10507000E6260C94A1260E94C32668F39923B1F377
:10508000552391F3951B550BBB27AA27621773076E
:10509000840738F09F5F5F4F220F331F441FAA1F02
:1050A000A9F335D00E2E3AF0E0E832D091505040BE
:1050B000E695001CCAF72BD0FE2F29D0660F771F6C
:1050C000881FBB1F261737074807AB07B0E809F052
:1050D000BB0B802DBF01FF2793585F4F3AF09E3FD7
:1050E000510578F00C949B260C94E6265F3FE4F380
:1050F000983ED4F3869577956795B795F7959F5F1A
:10510000C9F7880F911D9695879597F90895E1E065
:10511000660F771F881FBB1F621773078407BA07C4
:1051200020F0621B730B840BBA0BEE1F88F7E0951F
:1051300008950E94A0286894B1110C94E626089561
:105140000E94CB2688F09F5798F0B92F9927B75126
:10515000B0F0E1F0660F771F881F991F1AF0BA951B
:10516000C9F714C0B13091F00E94E526B1E008956E
:105170000C94E526672F782F8827B85F39F0B93F60
:10518000CCF3869577956795B395D9F73EF49095CE
:105190008095709561957F4F8F4F9F4F0895DF9356
:1051A000CF931F930F93FF92EF92DF927B018C01BD
:1051B000689406C0DA2EEF010E943E26FE01E894B4
:1051C000A5912591359145915591A6F3EF010E9446
:1051D0009E27FE019701A801DA9469F7DF90EF900E
:1051E000FF900F911F91CF91DF9108950C94A1260C
:1051F0000E94CB26D8F3E894E0E0BB279F57F0F05D
:105200002AED3FE049EC06C0EE0FBB0F661F771F8B
:10521000881F28F0B23A62077307840728F0B25A51
:10522000620B730B840BE3959A9572F7803830F418
:105230009A95BB0F661F771F881FD2F790480C9472
:105240009B29EF93E0FF07C0A2EA2AED3FE049EC7B
:105250005FEB0E949E270E94B2260F90039401FCF0
:105260009058E5E9F0E00C94AE290E94072608F476
:105270008FEF08959B01AC0160E070E080E89FE350
:105280000C9427289F930E94F8280F9007FCEE5F4C
:105290000C94212919F416F40C94A1260C94992944
:1052A0000E94CB26B8F39923C9F3B6F39F57550B49
:1052B00087FF0E94A7290024A0E640EA90018058B9
:1052C0005695979528F4805C660F771F881F20F00D
:1052D00026173707480730F4621B730B840B20290D
:1052E00031294A2BA69517940794202531254A2762
:1052F00058F7660F771F881F20F0261737074807D3
:1053000030F4620B730B840B200D311D411DA095F1
:1053100081F7B901842F9158880F96958795089544
:105320009B01AC010C942B260E940726880B990B3D
:1053300008959F3F31F0915020F4879577956795B8
:10534000B795880F911D9695879597F90895915077
:105350005040660F771F881FD2F708959F938F9351
:105360007F936F93FF93EF939B01AC010E942B26D9
:10537000EF91FF910E94CF282F913F914F915F9124
:105380000C942B26DB018F939F930E940B27BF91D8
:10539000AF91A29F800D911DA39F900DB29F900D84
:1053A00011240895991B79E004C0991F961708F0FD
:1053B000961B881F7A95C9F780950895EE0FFF1FF9
:1053C0000590F491E02D0994CF93DF9382309105FD
:1053D00010F482E090E0E0914206F091430620E074
:1053E00030E0C0E0D0E0309711F1408151814817A2
:1053F0005907C0F04817590761F4828193812097BB
:1054000019F09B838A832BC09093430680934206B6
:1054100026C02115310519F04217530718F49A01D7
:10542000BE01DF01EF010280F381E02DDCCF211509
:10543000310509F1281B390B2430310590F41296FF
:105440008D919C9113976115710521F0FB01938358
:10545000828304C09093430680934206FD013296F6
:1054600044C0FD01E20FF31F819391932250310953
:105470002D933C933AC02091400630914106232B56
:1054800041F420911B0130911C013093410620937F
:1054900040062091190130911A012115310541F47E
:1054A0002DB73EB740911D0150911E01241B350BB5
:1054B000E0914006F0914106E217F307A0F42E1B9D
:1054C0003F0B2817390778F0AC014E5F5F4F241768
:1054D000350748F04E0F5F1F50934106409340063A
:1054E0008193919302C0E0E0F0E0CF01DF91CF9192
:1054F00008950F931F93CF93DF93009709F48CC007
:10550000FC013297138212820091420610914306E9
:105510000115110581F420813181820F931F2091A3
:105520004006309141062817390779F5F093410676
:10553000E093400671C0D80140E050E0AE17BF07CD
:1055400050F412962D913C911397AD012115310520
:1055500009F1D901F3CF9D01DA0133832283608100
:105560007181860F971F8217930769F4EC012881D8
:105570003981260F371F2E5F3F4F318320838A8169
:105580009B8193838283452B29F4F0934306E09318
:10559000420642C01396FC93EE931297ED01499197
:1055A00059919E01240F351FE217F30771F4808192
:1055B0009181840F951F029611969C938E93828100
:1055C000938113969C938E931297E0E0F0E0D801BC
:1055D00012968D919C911397009719F0F8018C0108
:1055E000F6CF8D919C9198012E5F3F4F820F931FB4
:1055F00020914006309141062817390769F4309709
:1056000029F4109243061092420602C013821282BD
:105610001093410600934006DF91CF911F910F91A7
:105620000895A0E0B0E0E7E1FBE20C942227EC0152
:10563000009721F4CB010E94E429B8C0FC01E60FD9
:10564000F71F9C0122503109E217F30708F4ACC0A0
:10565000D9010D911C91119706171707B0F005306D
:10566000110508F49FC0C80104978617970708F42E
:1056700099C002501109061B170B019311936D93EA
:105680007C93CF010E94792A8DC05B01A01AB10AD8
:105690004C01800E911EA0914206B091430640E05D
:1056A00050E0E12CF12C109709F44AC0A815B90577
:1056B000D1F56D907C901197630182E0C80ED11CEA
:1056C000CA14DB0480F1A3014A195B096A0182E074
:1056D000C80ED11C1296BC9012971396AC91B5E0EF
:1056E000CB16D10440F0B282A38351834083D90109
:1056F0006D937C930AC00E5F1F4FC301800F911FF3
:10570000F90191838083EB2DFA2FE114F10431F03C
:10571000D7011396FC93EE93129744C0F09343067F
:10572000E09342063FC08D919C911197481759070D
:1057300008F4AC017D0112960D90BC91A02DB3CF61
:10574000809140069091410688159905E1F446172D
:105750005707C8F48091190190911A01009741F4FC
:105760008DB79EB740911D0150911E01841B950B72
:10577000E817F907C8F4F0934106E0934006F901F1
:10578000718360830FC0CB010E94E4297C010097E4
:1057900059F0A801BE010E94ED2BCE010E94792A8A
:1057A000C70104C0CE0102C080E090E0CDB7DEB7F3
:1057B000EEE00C943E2781E090E0F8940C944C2CA1
:1057C000FB01DC0104C08D910190801921F441504E
:1057D0005040C8F7881B990B0895FB01DC0102C0FB
:1057E00001900D9241505040D8F7089568177907FD
:1057F00068F4FB01DC01E40FF51FA40FB51F02C024
:1058000002900E9241505040D8F708950C94ED2B21
:10581000FC018191861721F08823D9F799270895F3
:105820003197CF010895FB01DC018D910190801922
:105830000110D9F3990B0895FB01DC0101900D9241
:105840000020E1F70895FB01DC014150504048F091
:1058500001900D920020C9F701C01D9241505040A7
:10586000E0F70895FB0151915523A9F0BF01DC0138
:105870004D9145174111E1F759F4CD0101900020F8
:1058800049F04D9140154111C9F3FB014111EFCF92
:1058900081E090E00197089510E0CEEAD0E004C0E6
:1058A000FE010E94DE292196CF3AD107C9F7F8946C
:0258B000FFCF28
:1058B2006E00140218021C022002100405000111DD
:1058C2000607000001FFFFFFFF0000440680000002
:1058D20000000000FA00E601D900C204CC04DE0197
:1058E2005861025959025A6B02494D024A510252F9
:1058F2005502BE0988098E0D8A0D00004000140071
:105902005400000000000000EC0D6E1BB50D930D5D
:10591200A70D330E00000000B4166E1B000000003D
:105922009801680160015101430142010000000039
:10593200840E6E1B840E840E840E840E0000000002
:10594200A2106E1B00000000840E6E1B53444341E4
:105952005244206E6F7420666F756E640067636FC9
:1059620064652E7478740047434F4445206E6F740B
:1059720020666F756E6400466F756E642067636F94
:1059820064652E7478742100496E697469616C696A
:105992007A696E6700506C6F747465722E2E2E00D9
:1059A200506C6F7474696E672E2E2E00556E6B6E7E
:1059B2006F776E204F50434F4445000D0A00446FED
:1059C2006E652100473030004730310047303200E9
:1059D200473033002C00783A002C793A00496E7631
:1059E200616C696420582F5921006E616E00696EE6
:0659F20066006F766600FE
:107800000C94343C0C94513C0C94513C0C94513CE1
:107810000C94513C0C94513C0C94513C0C94513CB4
:107820000C94513C0C94513C0C94513C0C94513CA4
:107830000C94513C0C94513C0C94513C0C94513C94
:107840000C94513C0C94513C0C94513C0C94513C84
:107850000C94513C0C94513C0C94513C0C94513C74
:107860000C94513C0C94513C11241FBECFEFD8E036
:10787000DEBFCDBF11E0A0E0B1E0ECE9FFE702C060
:1078800005900D92A230B107D9F712E0A2E0B1E065
:1078900001C01D92AD30B107E1F70E942D3D0C945F
:1078A000CC3F0C94003C982F959595959595959582
:1078B000905D8F708A307CF0282F295A8091C0000B
:1078C00085FFFCCF9093C6008091C00085FFFCCF60
:1078D0002093C6000895282F205DF0CF982F809127
